:0300000002007A81
:0C007A00787FE4F6D8FD758107020003D2
:100067007E7938395C37785C78767937393E7E5CCB
:0300770031385EBF
:10004800D3EF9400EE94004015E4FCFD0DBD0001D3
:0E0058000CED647D4C70F5EF1F70E51E80E22C
:010066002277
:10000300E4FBFA758920758BF4758DF4F587759883
:1000130050D28ED2ACD2AF74672BF58274003AF50E
:1000230083E493F5993099FDC2990BEB70010AD3E0
:100033009412EA648094804003E4FAFB7FE87E0331
:0500430012004880D20C
:00000001FF
