:0300000002009665
:0C009600787FE4F6D8FD758109020003B4
:10008600C09980C6F99290A1A4828886B0F8838E22
:0B00A200EF1FAC0670011E4C70F62230
:100003007590EFE4F509D3E5099403748094805067
:10001300EF209013E50925E025E02486F582E434FA
:1000230000F583E493F580209113E50925E025E0AD
:100033002487F582E43400F583E493F5802092135A
:10004300E50925E025E02488F582E43400F583E41E
:1000530093F580209313E50925E025E02489F582B3
:10006300E43400F583E493F5807F1E7E001200A242
:10007300859008E50825E0F50843080F85089005F5
:030083000980836E
:00000001FF
