:030000000200DB20
:0C00DB00787FE4F6D8FD75811B0201223D
:0A0290003F065B4F666D7D077F6F30
:10024200021400000216000002180000021A000048
:0E0252000C080000000000000000000000008A
:07021D001200037F017E00C7
:10022400D3EF9400EE940040147D327C00ED1D70F9
:0D023400011CED4C70F7EF1F70E61E80E31B
:01024100229A
:07000300D2A78F80C2A722E3
:10026100D2A674902FF58274023EF583E493F58053
:03027100C2A62200
:10016700AF09AE081202617580FF7F7F12021DAFD3
:100177000BAE0A1202617580FF7FBF12021DAF0D21
:10018700AE0C1202617580FF7FEF12021DAF0FAE3A
:100197000E1202617580FF7FF712021DAF11AE10BC
:1001A7001202617580FF7FFD12021DAF13AE12129E
:1001B70002617580FF7FFE1200037F017E0002024D
:0101C7002413
:10027400758902758C9C758A9CD2AFD2A9D28C22C6
:0C028400C2A6C2A712027412016780FB20
:03000B0002000EE2
:10000E00C0E0C0F0C0D075D000C000C004C005C0B4
:10001E0006C007051BE51B7002051A64107004E587
:10002E001A642760030200CAF51AF51B0515E515BB
:10003E0070020514643C45147028F514F515051767
:10004E00E51770020516643C45167016F516F51781
:10005E000519E51970020518641845187004F5188D
:10006E00F519AE14AF157C007D0A1201C88C088DEF
:10007E0009AE14AF157C007D0A1201C88E0A8F0BD3
:10008E00AE16AF177C007D0A1201C88C0C8D0DAE1A
:10009E0016AF177C007D0A1201C88E0E8F0FAE1898
:1000AE00AF197C007D0A1201C88C108D11AE18AFED
:1000BE00197C007D0A1201C88E128F13D007D0064C
:0D00CE00D005D004D000D0D0D0F0D0E0326A
:1000E700020284E493A3F8E493A34003F68001F2A9
:1000F70008DFF48029E493A3F85407240CC8C3331A
:10010700C4540F4420C8834004F456800146F6DFE8
:10011700E4800B0102040810204080900242E47E34
:10012700019360BCA3FF543F30E509541FFEE493DD
:10013700A360010ECF54C025E060A840B8E493A3A4
:10014700FAE493A3F8E493A3C8C582C8CAC583CACF
:10015700F0A3C8C582C8CAC583CADFE9DEE780BE87
:01026000009D
:1001C800BC000BBE0029EF8DF084FFADF022E4CC1B
:1001D800F875F008EF2FFFEE33FEEC33FCEE9DECE4
:1001E800984005FCEE9DFE0FD5F0E9E4CEFD22ED2A
:1001F800F8F5F0EE8420D21CFEADF075F008EF2F74
:10020800FFED33FD4007985006D5F0F222C398FD64
:050218000FD5F0EA2201
:00000001FF
